{
  "_format": "hh-sol-artifact-1",
  "contractName": "Create",
  "sourceName": "contracts/VotingContract.sol",
  "abi": [
    {
      "inputs": [],
      "stateMutability": "nonpayable",
      "type": "constructor"
    },
    {
      "anonymous": false,
      "inputs": [
        {
          "indexed": true,
          "internalType": "uint256",
          "name": "candidateId",
          "type": "uint256"
        },
        {
          "indexed": false,
          "internalType": "string",
          "name": "age",
          "type": "string"
        },
        {
          "indexed": false,
          "internalType": "string",
          "name": "name",
          "type": "string"
        },
        {
          "indexed": false,
          "internalType": "string",
          "name": "image",
          "type": "string"
        },
        {
          "indexed": false,
          "internalType": "uint256",
          "name": "voterCount",
          "type": "uint256"
        },
        {
          "indexed": false,
          "internalType": "address",
          "name": "_address",
          "type": "address"
        },
        {
          "indexed": false,
          "internalType": "string",
          "name": "ipfs",
          "type": "string"
        }
      ],
      "name": "CandidateCreate",
      "type": "event"
    },
    {
      "anonymous": false,
      "inputs": [
        {
          "indexed": true,
          "internalType": "uint256",
          "name": "voter_voterId",
          "type": "uint256"
        },
        {
          "indexed": false,
          "internalType": "string",
          "name": "voter_name",
          "type": "string"
        },
        {
          "indexed": false,
          "internalType": "string",
          "name": "voter_image",
          "type": "string"
        },
        {
          "indexed": false,
          "internalType": "address",
          "name": "voter_address",
          "type": "address"
        },
        {
          "indexed": false,
          "internalType": "uint256",
          "name": "voter_allowed",
          "type": "uint256"
        },
        {
          "indexed": false,
          "internalType": "bool",
          "name": "voter_voted",
          "type": "bool"
        },
        {
          "indexed": false,
          "internalType": "uint256",
          "name": "voter_vote",
          "type": "uint256"
        },
        {
          "indexed": false,
          "internalType": "string",
          "name": "voter_ipfs",
          "type": "string"
        }
      ],
      "name": "VoterCreated",
      "type": "event"
    },
    {
      "inputs": [
        {
          "internalType": "uint256",
          "name": "",
          "type": "uint256"
        }
      ],
      "name": "VotedVoters",
      "outputs": [
        {
          "internalType": "address",
          "name": "",
          "type": "address"
        }
      ],
      "stateMutability": "view",
      "type": "function"
    },
    {
      "inputs": [
        {
          "internalType": "uint256",
          "name": "",
          "type": "uint256"
        }
      ],
      "name": "VoterAddress",
      "outputs": [
        {
          "internalType": "address",
          "name": "",
          "type": "address"
        }
      ],
      "stateMutability": "view",
      "type": "function"
    },
    {
      "inputs": [],
      "name": "_candidateId",
      "outputs": [
        {
          "internalType": "uint256",
          "name": "",
          "type": "uint256"
        }
      ],
      "stateMutability": "view",
      "type": "function"
    },
    {
      "inputs": [],
      "name": "_voterId",
      "outputs": [
        {
          "internalType": "uint256",
          "name": "",
          "type": "uint256"
        }
      ],
      "stateMutability": "view",
      "type": "function"
    },
    {
      "inputs": [
        {
          "internalType": "uint256",
          "name": "",
          "type": "uint256"
        }
      ],
      "name": "candidateAddress",
      "outputs": [
        {
          "internalType": "address",
          "name": "",
          "type": "address"
        }
      ],
      "stateMutability": "view",
      "type": "function"
    },
    {
      "inputs": [
        {
          "internalType": "address",
          "name": "",
          "type": "address"
        }
      ],
      "name": "candidates",
      "outputs": [
        {
          "internalType": "uint256",
          "name": "candidateId",
          "type": "uint256"
        },
        {
          "internalType": "string",
          "name": "age",
          "type": "string"
        },
        {
          "internalType": "string",
          "name": "name",
          "type": "string"
        },
        {
          "internalType": "string",
          "name": "image",
          "type": "string"
        },
        {
          "internalType": "uint256",
          "name": "voterCount",
          "type": "uint256"
        },
        {
          "internalType": "address",
          "name": "_address",
          "type": "address"
        },
        {
          "internalType": "string",
          "name": "ipfs",
          "type": "string"
        }
      ],
      "stateMutability": "view",
      "type": "function"
    },
    {
      "inputs": [],
      "name": "getCandidate",
      "outputs": [
        {
          "internalType": "address[]",
          "name": "",
          "type": "address[]"
        }
      ],
      "stateMutability": "view",
      "type": "function"
    },
    {
      "inputs": [],
      "name": "getCandidateLength",
      "outputs": [
        {
          "internalType": "uint256",
          "name": "",
          "type": "uint256"
        }
      ],
      "stateMutability": "view",
      "type": "function"
    },
    {
      "inputs": [
        {
          "internalType": "address",
          "name": "_address",
          "type": "address"
        }
      ],
      "name": "getCandidatedata",
      "outputs": [
        {
          "internalType": "string",
          "name": "",
          "type": "string"
        },
        {
          "internalType": "string",
          "name": "",
          "type": "string"
        },
        {
          "internalType": "uint256",
          "name": "",
          "type": "uint256"
        },
        {
          "internalType": "string",
          "name": "",
          "type": "string"
        },
        {
          "internalType": "uint256",
          "name": "",
          "type": "uint256"
        },
        {
          "internalType": "string",
          "name": "",
          "type": "string"
        },
        {
          "internalType": "address",
          "name": "",
          "type": "address"
        }
      ],
      "stateMutability": "view",
      "type": "function"
    },
    {
      "inputs": [],
      "name": "getVotedVoterList",
      "outputs": [
        {
          "internalType": "address[]",
          "name": "",
          "type": "address[]"
        }
      ],
      "stateMutability": "view",
      "type": "function"
    },
    {
      "inputs": [],
      "name": "getVoterLength",
      "outputs": [
        {
          "internalType": "uint256",
          "name": "",
          "type": "uint256"
        }
      ],
      "stateMutability": "view",
      "type": "function"
    },
    {
      "inputs": [],
      "name": "getVoterList",
      "outputs": [
        {
          "internalType": "address[]",
          "name": "",
          "type": "address[]"
        }
      ],
      "stateMutability": "view",
      "type": "function"
    },
    {
      "inputs": [
        {
          "internalType": "address",
          "name": "_address",
          "type": "address"
        }
      ],
      "name": "getVoterdata",
      "outputs": [
        {
          "internalType": "uint256",
          "name": "",
          "type": "uint256"
        },
        {
          "internalType": "string",
          "name": "",
          "type": "string"
        },
        {
          "internalType": "string",
          "name": "",
          "type": "string"
        },
        {
          "internalType": "address",
          "name": "",
          "type": "address"
        },
        {
          "internalType": "string",
          "name": "",
          "type": "string"
        },
        {
          "internalType": "uint256",
          "name": "",
          "type": "uint256"
        },
        {
          "internalType": "bool",
          "name": "",
          "type": "bool"
        }
      ],
      "stateMutability": "view",
      "type": "function"
    },
    {
      "inputs": [
        {
          "internalType": "address",
          "name": "_address",
          "type": "address"
        },
        {
          "internalType": "string",
          "name": "_age",
          "type": "string"
        },
        {
          "internalType": "string",
          "name": "_name",
          "type": "string"
        },
        {
          "internalType": "string",
          "name": "_image",
          "type": "string"
        },
        {
          "internalType": "string",
          "name": "_ipfs",
          "type": "string"
        }
      ],
      "name": "setCandidate",
      "outputs": [],
      "stateMutability": "nonpayable",
      "type": "function"
    },
    {
      "inputs": [
        {
          "internalType": "address",
          "name": "_candidateAddress",
          "type": "address"
        },
        {
          "internalType": "uint256",
          "name": "candidateVoteId",
          "type": "uint256"
        }
      ],
      "name": "vote",
      "outputs": [],
      "stateMutability": "nonpayable",
      "type": "function"
    },
    {
      "inputs": [
        {
          "internalType": "address",
          "name": "_address",
          "type": "address"
        },
        {
          "internalType": "string",
          "name": "_name",
          "type": "string"
        },
        {
          "internalType": "string",
          "name": "_image",
          "type": "string"
        },
        {
          "internalType": "string",
          "name": "_ipfs",
          "type": "string"
        }
      ],
      "name": "voterRight",
      "outputs": [],
      "stateMutability": "nonpayable",
      "type": "function"
    },
    {
      "inputs": [
        {
          "internalType": "address",
          "name": "",
          "type": "address"
        }
      ],
      "name": "voters",
      "outputs": [
        {
          "internalType": "uint256",
          "name": "voter_voterId",
          "type": "uint256"
        },
        {
          "internalType": "string",
          "name": "voter_name",
          "type": "string"
        },
        {
          "internalType": "string",
          "name": "voter_image",
          "type": "string"
        },
        {
          "internalType": "address",
          "name": "voter_address",
          "type": "address"
        },
        {
          "internalType": "uint256",
          "name": "voter_allowed",
          "type": "uint256"
        },
        {
          "internalType": "bool",
          "name": "voter_voted",
          "type": "bool"
        },
        {
          "internalType": "uint256",
          "name": "voter_vote",
          "type": "uint256"
        },
        {
          "internalType": "string",
          "name": "voter_ipfs",
          "type": "string"
        }
      ],
      "stateMutability": "view",
      "type": "function"
    },
    {
      "inputs": [],
      "name": "votingOrganizer",
      "outputs": [
        {
          "internalType": "address",
          "name": "",
          "type": "address"
        }
      ],
      "stateMutability": "view",
      "type": "function"
    }
  ],
  "bytecode": "0x608060405234801561001057600080fd5b5033600260006101000a81548173ffffffffffffffffffffffffffffffffffffffff021916908373ffffffffffffffffffffffffffffffffffffffff160217905550612884806100616000396000f3fe608060405234801561001057600080fd5b50600436106101165760003560e01c8063a3ec138d116100a2578063b63c82ca11610071578063b63c82ca14610304578063b9be31521461033a578063c5036fd414610358578063c91ec7121461038e578063f7522a83146103aa57610116565b8063a3ec138d14610261578063a738896714610298578063b28d92ae146102b6578063b39456b2146102d457610116565b80635cc48aa7116100e95780635cc48aa7146101b55780635f74bbde146101d357806370218b85146101ef5780638ab66a901461020d5780638e9456851461024357610116565b80630361419e1461011b57806305ad45a41461013757806334e602bc146101555780633a88251a14610185575b600080fd5b61013560048036038101906101309190611b57565b6103c8565b005b61013f610645565b60405161014c9190611c2b565b60405180910390f35b61016f600480360381019061016a9190611c72565b610652565b60405161017c9190611cae565b60405180910390f35b61019f600480360381019061019a9190611c72565b610691565b6040516101ac9190611cae565b60405180910390f35b6101bd6106d0565b6040516101ca9190611cae565b60405180910390f35b6101ed60048036038101906101e89190611cc9565b6106f6565b005b6101f76108bd565b6040516102049190611dc7565b60405180910390f35b61022760048036038101906102229190611de9565b61094b565b60405161023a9796959493929190611e95565b60405180910390f35b61024b610bcd565b6040516102589190611dc7565b60405180910390f35b61027b60048036038101906102769190611de9565b610c5b565b60405161028f989796959493929190611f3b565b60405180910390f35b6102a0610e68565b6040516102ad9190611c2b565b60405180910390f35b6102be610e6e565b6040516102cb9190611dc7565b60405180910390f35b6102ee60048036038101906102e99190611c72565b610efc565b6040516102fb9190611cae565b60405180910390f35b61031e60048036038101906103199190611de9565b610f3b565b6040516103319796959493929190611fce565b60405180910390f35b610342611382565b60405161034f9190611c2b565b60405180910390f35b610372600480360381019061036d9190611de9565b611388565b6040516103859796959493929190612059565b60405180910390f35b6103a860048036038101906103a391906120dd565b611750565b005b6103b2611992565b6040516103bf9190611c2b565b60405180910390f35b3373ffffffffffffffffffffffffffffffffffffffff16600260009054906101000a900473ffffffffffffffffffffffffffffffffffffffff1673ffffffffffffffffffffffffffffffffffffffff1614610458576040517f08c379a000000000000000000000000000000000000000000000000000000000815260040161044f90612214565b60405180910390fd5b60008081548092919061046a90612263565b91905055506000805490506000600760008773ffffffffffffffffffffffffffffffffffffffff1673ffffffffffffffffffffffffffffffffffffffff168152602001908152602001600020905060008160040154146104c957600080fd5b60018160040181905550848160010190816104e491906124b7565b50838160020190816104f691906124b7565b50858160030160006101000a81548173ffffffffffffffffffffffffffffffffffffffff021916908373ffffffffffffffffffffffffffffffffffffffff1602179055508181600001819055506103e8816006018190555060008160050160006101000a81548160ff0219169083151502179055508281600701908161057c91906124b7565b506006869080600181540180825580915050600190039060005260206000200160009091909190916101000a81548173ffffffffffffffffffffffffffffffffffffffff021916908373ffffffffffffffffffffffffffffffffffffffff160217905550817ff5f39971dd62d9929e3a9feaa6bb77fe7c7da0001babff8a65a7e51ad0201c1986868985600401548660050160009054906101000a900460ff1687600601548a6040516106359796959493929190612589565b60405180910390a2505050505050565b6000600680549050905090565b6005818154811061066257600080fd5b906000526020600020016000915054906101000a900473ffffffffffffffffffffffffffffffffffffffff1681565b600381815481106106a157600080fd5b906000526020600020016000915054906101000a900473ffffffffffffffffffffffffffffffffffffffff1681565b600260009054906101000a900473ffffffffffffffffffffffffffffffffffffffff1681565b6000600760003373ffffffffffffffffffffffffffffffffffffffff1673ffffffffffffffffffffffffffffffffffffffff16815260200190815260200160002090508060050160009054906101000a900460ff161561078b576040517f08c379a000000000000000000000000000000000000000000000000000000000815260040161078290612659565b60405180910390fd5b60008160040154036107d2576040517f08c379a00000000000000000000000000000000000000000000000000000000081526004016107c9906126eb565b60405180910390fd5b60018160050160006101000a81548160ff0219169083151502179055508181600601819055506005339080600181540180825580915050600190039060005260206000200160009091909190916101000a81548173ffffffffffffffffffffffffffffffffffffffff021916908373ffffffffffffffffffffffffffffffffffffffff1602179055508060040154600460008573ffffffffffffffffffffffffffffffffffffffff1673ffffffffffffffffffffffffffffffffffffffff16815260200190815260200160002060040160008282546108b1919061270b565b92505081905550505050565b6060600380548060200260200160405190810160405280929190818152602001828054801561094157602002820191906000526020600020905b8160009054906101000a900473ffffffffffffffffffffffffffffffffffffffff1673ffffffffffffffffffffffffffffffffffffffff16815260200190600101908083116108f7575b5050505050905090565b6004602052806000526040600020600091509050806000015490806001018054610974906122da565b80601f01602080910402602001604051908101604052809291908181526020018280546109a0906122da565b80156109ed5780601f106109c2576101008083540402835291602001916109ed565b820191906000526020600020905b8154815290600101906020018083116109d057829003601f168201915b505050505090806002018054610a02906122da565b80601f0160208091040260200160405190810160405280929190818152602001828054610a2e906122da565b8015610a7b5780601f10610a5057610100808354040283529160200191610a7b565b820191906000526020600020905b815481529060010190602001808311610a5e57829003601f168201915b505050505090806003018054610a90906122da565b80601f0160208091040260200160405190810160405280929190818152602001828054610abc906122da565b8015610b095780601f10610ade57610100808354040283529160200191610b09565b820191906000526020600020905b815481529060010190602001808311610aec57829003601f168201915b5050505050908060040154908060050160009054906101000a900473ffffffffffffffffffffffffffffffffffffffff1690806006018054610b4a906122da565b80601f0160208091040260200160405190810160405280929190818152602001828054610b76906122da565b8015610bc35780601f10610b9857610100808354040283529160200191610bc3565b820191906000526020600020905b815481529060010190602001808311610ba657829003601f168201915b5050505050905087565b60606005805480602002602001604051908101604052809291908181526020018280548015610c5157602002820191906000526020600020905b8160009054906101000a900473ffffffffffffffffffffffffffffffffffffffff1673ffffffffffffffffffffffffffffffffffffffff1681526020019060010190808311610c07575b5050505050905090565b6007602052806000526040600020600091509050806000015490806001018054610c84906122da565b80601f0160208091040260200160405190810160405280929190818152602001828054610cb0906122da565b8015610cfd5780601f10610cd257610100808354040283529160200191610cfd565b820191906000526020600020905b815481529060010190602001808311610ce057829003601f168201915b505050505090806002018054610d12906122da565b80601f0160208091040260200160405190810160405280929190818152602001828054610d3e906122da565b8015610d8b5780601f10610d6057610100808354040283529160200191610d8b565b820191906000526020600020905b815481529060010190602001808311610d6e57829003601f168201915b5050505050908060030160009054906101000a900473ffffffffffffffffffffffffffffffffffffffff16908060040154908060050160009054906101000a900460ff1690806006015490806007018054610de5906122da565b80601f0160208091040260200160405190810160405280929190818152602001828054610e11906122da565b8015610e5e5780601f10610e3357610100808354040283529160200191610e5e565b820191906000526020600020905b815481529060010190602001808311610e4157829003601f168201915b5050505050905088565b60015481565b60606006805480602002602001604051908101604052809291908181526020018280548015610ef257602002820191906000526020600020905b8160009054906101000a900473ffffffffffffffffffffffffffffffffffffffff1673ffffffffffffffffffffffffffffffffffffffff1681526020019060010190808311610ea8575b5050505050905090565b60068181548110610f0c57600080fd5b906000526020600020016000915054906101000a900473ffffffffffffffffffffffffffffffffffffffff1681565b60608060006060600060606000600460008973ffffffffffffffffffffffffffffffffffffffff1673ffffffffffffffffffffffffffffffffffffffff168152602001908152602001600020600101600460008a73ffffffffffffffffffffffffffffffffffffffff1673ffffffffffffffffffffffffffffffffffffffff168152602001908152602001600020600201600460008b73ffffffffffffffffffffffffffffffffffffffff1673ffffffffffffffffffffffffffffffffffffffff16815260200190815260200160002060000154600460008c73ffffffffffffffffffffffffffffffffffffffff1673ffffffffffffffffffffffffffffffffffffffff168152602001908152602001600020600301600460008d73ffffffffffffffffffffffffffffffffffffffff1673ffffffffffffffffffffffffffffffffffffffff16815260200190815260200160002060040154600460008e73ffffffffffffffffffffffffffffffffffffffff1673ffffffffffffffffffffffffffffffffffffffff168152602001908152602001600020600601600460008f73ffffffffffffffffffffffffffffffffffffffff1673ffffffffffffffffffffffffffffffffffffffff16815260200190815260200160002060050160009054906101000a900473ffffffffffffffffffffffffffffffffffffffff16868054611145906122da565b80601f0160208091040260200160405190810160405280929190818152602001828054611171906122da565b80156111be5780601f10611193576101008083540402835291602001916111be565b820191906000526020600020905b8154815290600101906020018083116111a157829003601f168201915b505050505096508580546111d1906122da565b80601f01602080910402602001604051908101604052809291908181526020018280546111fd906122da565b801561124a5780601f1061121f5761010080835404028352916020019161124a565b820191906000526020600020905b81548152906001019060200180831161122d57829003601f168201915b5050505050955083805461125d906122da565b80601f0160208091040260200160405190810160405280929190818152602001828054611289906122da565b80156112d65780601f106112ab576101008083540402835291602001916112d6565b820191906000526020600020905b8154815290600101906020018083116112b957829003601f168201915b505050505093508180546112e9906122da565b80601f0160208091040260200160405190810160405280929190818152602001828054611315906122da565b80156113625780601f1061133757610100808354040283529160200191611362565b820191906000526020600020905b81548152906001019060200180831161134557829003601f168201915b505050505091509650965096509650965096509650919395979092949650565b60005481565b600060608060006060600080600760008973ffffffffffffffffffffffffffffffffffffffff1673ffffffffffffffffffffffffffffffffffffffff16815260200190815260200160002060000154600760008a73ffffffffffffffffffffffffffffffffffffffff1673ffffffffffffffffffffffffffffffffffffffff168152602001908152602001600020600101600760008b73ffffffffffffffffffffffffffffffffffffffff1673ffffffffffffffffffffffffffffffffffffffff168152602001908152602001600020600201600760008c73ffffffffffffffffffffffffffffffffffffffff1673ffffffffffffffffffffffffffffffffffffffff16815260200190815260200160002060030160009054906101000a900473ffffffffffffffffffffffffffffffffffffffff16600760008d73ffffffffffffffffffffffffffffffffffffffff1673ffffffffffffffffffffffffffffffffffffffff168152602001908152602001600020600701600760008e73ffffffffffffffffffffffffffffffffffffffff1673ffffffffffffffffffffffffffffffffffffffff16815260200190815260200160002060040154600760008f73ffffffffffffffffffffffffffffffffffffffff1673ffffffffffffffffffffffffffffffffffffffff16815260200190815260200160002060050160009054906101000a900460ff1685805461159f906122da565b80601f01602080910402602001604051908101604052809291908181526020018280546115cb906122da565b80156116185780601f106115ed57610100808354040283529160200191611618565b820191906000526020600020905b8154815290600101906020018083116115fb57829003601f168201915b5050505050955084805461162b906122da565b80601f0160208091040260200160405190810160405280929190818152602001828054611657906122da565b80156116a45780601f10611679576101008083540402835291602001916116a4565b820191906000526020600020905b81548152906001019060200180831161168757829003601f168201915b505050505094508280546116b7906122da565b80601f01602080910402602001604051908101604052809291908181526020018280546116e3906122da565b80156117305780601f1061170557610100808354040283529160200191611730565b820191906000526020600020905b81548152906001019060200180831161171357829003601f168201915b505050505092509650965096509650965096509650919395979092949650565b3373ffffffffffffffffffffffffffffffffffffffff16600260009054906101000a900473ffffffffffffffffffffffffffffffffffffffff1673ffffffffffffffffffffffffffffffffffffffff16146117e0576040517f08c379a00000000000000000000000000000000000000000000000000000000081526004016117d7906127b1565b60405180910390fd5b600160008154809291906117f390612263565b9190505550600060015490506000600460008873ffffffffffffffffffffffffffffffffffffffff1673ffffffffffffffffffffffffffffffffffffffff16815260200190815260200160002090508581600101908161185391906124b7565b508481600201908161186591906124b7565b508181600001819055508381600301908161188091906124b7565b5060008160040181905550868160050160006101000a81548173ffffffffffffffffffffffffffffffffffffffff021916908373ffffffffffffffffffffffffffffffffffffffff160217905550828160060190816118df91906124b7565b506003879080600181540180825580915050600190039060005260206000200160009091909190916101000a81548173ffffffffffffffffffffffffffffffffffffffff021916908373ffffffffffffffffffffffffffffffffffffffff160217905550817fd297f12b256bb8485a6013fb5e302017018123e99a0ebb20756c09e1707b4b9087878785600401548c89604051611981969594939291906127d1565b60405180910390a250505050505050565b6000600380549050905090565b6000604051905090565b600080fd5b600080fd5b600073ffffffffffffffffffffffffffffffffffffffff82169050919050565b60006119de826119b3565b9050919050565b6119ee816119d3565b81146119f957600080fd5b50565b600081359050611a0b816119e5565b92915050565b600080fd5b600080fd5b6000601f19601f8301169050919050565b7f4e487b7100000000000000000000000000000000000000000000000000000000600052604160045260246000fd5b611a6482611a1b565b810181811067ffffffffffffffff82111715611a8357611a82611a2c565b5b80604052505050565b6000611a9661199f565b9050611aa28282611a5b565b919050565b600067ffffffffffffffff821115611ac257611ac1611a2c565b5b611acb82611a1b565b9050602081019050919050565b82818337600083830152505050565b6000611afa611af584611aa7565b611a8c565b905082815260208101848484011115611b1657611b15611a16565b5b611b21848285611ad8565b509392505050565b600082601f830112611b3e57611b3d611a11565b5b8135611b4e848260208601611ae7565b91505092915050565b60008060008060808587031215611b7157611b706119a9565b5b6000611b7f878288016119fc565b945050602085013567ffffffffffffffff811115611ba057611b9f6119ae565b5b611bac87828801611b29565b935050604085013567ffffffffffffffff811115611bcd57611bcc6119ae565b5b611bd987828801611b29565b925050606085013567ffffffffffffffff811115611bfa57611bf96119ae565b5b611c0687828801611b29565b91505092959194509250565b6000819050919050565b611c2581611c12565b82525050565b6000602082019050611c406000830184611c1c565b92915050565b611c4f81611c12565b8114611c5a57600080fd5b50565b600081359050611c6c81611c46565b92915050565b600060208284031215611c8857611c876119a9565b5b6000611c9684828501611c5d565b91505092915050565b611ca8816119d3565b82525050565b6000602082019050611cc36000830184611c9f565b92915050565b60008060408385031215611ce057611cdf6119a9565b5b6000611cee858286016119fc565b9250506020611cff85828601611c5d565b9150509250929050565b600081519050919050565b600082825260208201905092915050565b6000819050602082019050919050565b611d3e816119d3565b82525050565b6000611d508383611d35565b60208301905092915050565b6000602082019050919050565b6000611d7482611d09565b611d7e8185611d14565b9350611d8983611d25565b8060005b83811015611dba578151611da18882611d44565b9750611dac83611d5c565b925050600181019050611d8d565b5085935050505092915050565b60006020820190508181036000830152611de18184611d69565b905092915050565b600060208284031215611dff57611dfe6119a9565b5b6000611e0d848285016119fc565b91505092915050565b600081519050919050565b600082825260208201905092915050565b60005b83811015611e50578082015181840152602081019050611e35565b60008484015250505050565b6000611e6782611e16565b611e718185611e21565b9350611e81818560208601611e32565b611e8a81611a1b565b840191505092915050565b600060e082019050611eaa600083018a611c1c565b8181036020830152611ebc8189611e5c565b90508181036040830152611ed08188611e5c565b90508181036060830152611ee48187611e5c565b9050611ef36080830186611c1c565b611f0060a0830185611c9f565b81810360c0830152611f128184611e5c565b905098975050505050505050565b60008115159050919050565b611f3581611f20565b82525050565b600061010082019050611f51600083018b611c1c565b8181036020830152611f63818a611e5c565b90508181036040830152611f778189611e5c565b9050611f866060830188611c9f565b611f936080830187611c1c565b611fa060a0830186611f2c565b611fad60c0830185611c1c565b81810360e0830152611fbf8184611e5c565b90509998505050505050505050565b600060e0820190508181036000830152611fe8818a611e5c565b90508181036020830152611ffc8189611e5c565b905061200b6040830188611c1c565b818103606083015261201d8187611e5c565b905061202c6080830186611c1c565b81810360a083015261203e8185611e5c565b905061204d60c0830184611c9f565b98975050505050505050565b600060e08201905061206e600083018a611c1c565b81810360208301526120808189611e5c565b905081810360408301526120948188611e5c565b90506120a36060830187611c9f565b81810360808301526120b58186611e5c565b90506120c460a0830185611c1c565b6120d160c0830184611f2c565b98975050505050505050565b600080600080600060a086880312156120f9576120f86119a9565b5b6000612107888289016119fc565b955050602086013567ffffffffffffffff811115612128576121276119ae565b5b61213488828901611b29565b945050604086013567ffffffffffffffff811115612155576121546119ae565b5b61216188828901611b29565b935050606086013567ffffffffffffffff811115612182576121816119ae565b5b61218e88828901611b29565b925050608086013567ffffffffffffffff8111156121af576121ae6119ae565b5b6121bb88828901611b29565b9150509295509295909350565b7f4f6e6c79206f7267616e697a65722063616e2063726561746520766f74657200600082015250565b60006121fe601f83611e21565b9150612209826121c8565b602082019050919050565b6000602082019050818103600083015261222d816121f1565b9050919050565b7f4e487b7100000000000000000000000000000000000000000000000000000000600052601160045260246000fd5b600061226e82611c12565b91507fffffffffffffffffffffffffffffffffffffffffffffffffffffffffffffffff82036122a05761229f612234565b5b600182019050919050565b7f4e487b7100000000000000000000000000000000000000000000000000000000600052602260045260246000fd5b600060028204905060018216806122f257607f821691505b602082108103612305576123046122ab565b5b50919050565b60008190508160005260206000209050919050565b60006020601f8301049050919050565b600082821b905092915050565b60006008830261236d7fffffffffffffffffffffffffffffffffffffffffffffffffffffffffffffffff82612330565b6123778683612330565b95508019841693508086168417925050509392505050565b6000819050919050565b60006123b46123af6123aa84611c12565b61238f565b611c12565b9050919050565b6000819050919050565b6123ce83612399565b6123e26123da826123bb565b84845461233d565b825550505050565b600090565b6123f76123ea565b6124028184846123c5565b505050565b5b818110156124265761241b6000826123ef565b600181019050612408565b5050565b601f82111561246b5761243c8161230b565b61244584612320565b81016020851015612454578190505b61246861246085612320565b830182612407565b50505b505050565b600082821c905092915050565b600061248e60001984600802612470565b1980831691505092915050565b60006124a7838361247d565b9150826002028217905092915050565b6124c082611e16565b67ffffffffffffffff8111156124d9576124d8611a2c565b5b6124e382546122da565b6124ee82828561242a565b600060209050601f831160018114612521576000841561250f578287015190505b612519858261249b565b865550612581565b601f19841661252f8661230b565b60005b8281101561255757848901518255600182019150602085019450602081019050612532565b868310156125745784890151612570601f89168261247d565b8355505b6001600288020188555050505b505050505050565b600060e08201905081810360008301526125a3818a611e5c565b905081810360208301526125b78189611e5c565b90506125c66040830188611c9f565b6125d36060830187611c1c565b6125e06080830186611f2c565b6125ed60a0830185611c1c565b81810360c08301526125ff8184611e5c565b905098975050505050505050565b7f566f7465206b6172206c69796120626861692074756e65000000000000000000600082015250565b6000612643601783611e21565b915061264e8261260d565b602082019050919050565b6000602082019050818103600083015261267281612636565b9050919050565b7f4a612062686169206e616869206b61726e652064656e6765207465726b6f207660008201527f6f74650000000000000000000000000000000000000000000000000000000000602082015250565b60006126d5602383611e21565b91506126e082612679565b604082019050919050565b60006020820190508181036000830152612704816126c8565b9050919050565b600061271682611c12565b915061272183611c12565b925082820190508082111561273957612738612234565b5b92915050565b7f4f6e6c79206f7267616e697a65722063616e20617574686f72697a652063616e60008201527f6469646174657300000000000000000000000000000000000000000000000000602082015250565b600061279b602783611e21565b91506127a68261273f565b604082019050919050565b600060208201905081810360008301526127ca8161278e565b9050919050565b600060c08201905081810360008301526127eb8189611e5c565b905081810360208301526127ff8188611e5c565b905081810360408301526128138187611e5c565b90506128226060830186611c1c565b61282f6080830185611c9f565b81810360a08301526128418184611e5c565b905097965050505050505056fea26469706673582212209da60484337233c05a67dea17e1b2d0a2a846739e5acba8be21778dcd3917cc664736f6c63430008180033",
  "linkReferences": {},
  "deployedLinkReferences": {}
}